:020000040800F2
:1000000000000220B522000805230008052300088F
:100010000523000805230008052300080000000050
:1000200000000000000000000000000005230008A0
:10003000052300080000000005230008A71700089A
:1000400005230008052300080523000805230008F0
:100050000523000805230008A5180008AF180008AC
:10006000B9180008C3180008CD18000805230008B7
:1000700005230008052300080523000805230008C0
:1000800005230008052300080523000800000000E0
:10009000000000000000000000000000D718000869
:1000A0002D160008A915000841160008C9150008FA
:1000B000DD150008F11500080516000805230008E5
:1000C0000523000805230008052300080523000870
:1000D00005230008612100087921000800000000C4
:1000E000EB180008052300080523000800000000A5
:1000F00000000000000000000000000005230008D0
:100100000000000005230008191600080523000858
:1001100000000000000000000000000000000000DF
:10012000052300080523000805230008052300080F
:10013000052300080000000000000000000000008F
:10014000000000000000000000000000052300087F
:100150000523000805230008052300089121000855
:10016000052300080523000800000000000000002F
:10017000000000000000000000000000000000007F
:10018000000000000523000800000000000000003F
:08019000052300080523000807
:1001980053B94AB9002908BF00281CBF4FF0FF31E6
:1001A8004FF0FF3000F00CB8ADF1080C6DE904CE4B
:1001B80002F01AFDDDF804E0DDE9022304B070471F
:1001C800704700BF10B5054C237833B9044B13B101
:1001D8000448AFF300800123237010BDA000002065
:1001E80000000000AC2E000808B5034B1BB1034902
:1001F8000348AFF3008008BD00000000A400002001
:10020800AC2E000810B50024174B1C60174B5A6918
:10021800174B1A60174B5B7903EB8303134416499A
:100228000B60164B1A60164B4FF440621A6001219E
:100238001F2002F065F801211F2002F0CFF84FF4CB
:10024800967002F00FF921461F2002F0C7F84FF40C
:10025800967002F007F901211F2002F0BFF84FF451
:10026800967002F0FFF810BDCC00002000000020BE
:10027800C4000020C42E0008C0000020BC000020DC
:10028800C80000207047704710B504460E4B1A7816
:100298004FF47A73B3FBF2F30C4A1068B0FBF3F037
:1002A80000F0ACF868B90F2C01D901200AE000224F
:1002B80021464FF0FF3000F04BF8054B1C60002042
:1002C80000E0012010BD00BF2000002048000020F1
:1002D8002400002008B50B4B1A6842F400721A601B
:1002E8001A6842F480621A601A6842F480721A60CE
:1002F800032000F01BF80020FFF7C6FFFFF7C3FF3D
:10030800002008BD003C0240034A1168034B1B78DB
:100318000B441360704700BFD0000020200000206D
:10032800014B1868704700BFD00000200749CA6811
:10033800030203F4E06322F4E0621204120C134394
:1003480043F0BF6343F40033CB60704700ED00E037
:1003580000B5184BDB68C3F30223C3F1070CBCF1EB
:10036800040F28BF4FF0040C03F1040EBEF1060F72
:100378008CBF033B00234FF0FF3E0EFA0CFC21EA32
:100388000C0199400EFA03FE22EA0E0211430028DE
:1003980009DB0901C9B200F1604000F5614080F84D
:1003A80000135DF804FB00F00F000901C9B2024B0D
:1003B8001954F6E700ED00E014ED00E0002807DB33
:1003C800410900F01F0001238340024A42F821300E
:1003D800704700BF00E100E000280CDB430900F093
:1003E8001F00012282402033034941F82320BFF334
:1003F8004F8FBFF36F8F704700E100E00138B0F115
:10040800807F0BD24FF0E0235861054AF02182F833
:1004180023100020986107221A6170470120704755
:1004280000ED00E0002808DB430900F01F0001226E
:1004380082406033014941F82320704700E100E021
:10044800704708B5FFF7FCFF08BD704758B110B5F5
:10045800044643791BB101236371002010BD037169
:10046800FFF7F3FFF7E70120704770B50446866D84
:10047800FFF756FF94F83530DBB2022B06D0802305
:1004880063650120002384F8343070BD0546226876
:10049800136823F0160313602268536923F080035E
:1004A8005361236CCBB12268136823F008031360EF
:1004B8002268136823F00103136023681B6813F094
:1004C800010F0ED0FFF72CFF431B052BF5D9202376
:1004D8006365032084F83500D4E7A36C002BE2D1D0
:1004E800E6E7E26D3F239340B360012384F835309B
:1004F8000020C7E790F83530DBB2022B03D0802309
:10050800436501207047052380F835300268136879
:1005180023F00103136000207047000008B5054B65
:100528005B69034200D108BD024B586101F098F99C
:10053800F9E700BF003C0140002800F0E1812DE907
:10054800F04182B00446036813F0010F3BD09F4B83
:100558009B6803F00C03042B2CD09C4B9B6803F086
:100568000C03082B21D06368B3F5803F4FD0B3F557
:10057800A02F52D0954B1A6822F480321A601A685C
:1005880022F480221A606368002B50D0FFF7C8FE5F
:1005980005468E4E336813F4003F14D1FFF7C0FEB2
:1005A800401B6428F6D90320B1E1884B5B6813F43B
:1005B800800FD8D0854B1B6813F4003F03D06368C5
:1005C800002B00F09F81236813F0020F54D07F4B5B
:1005D8009B6813F00C0F3ED07C4B9B6803F00C0318
:1005E800082B33D0E368002B68D0794B01221A60BE
:1005F800FFF796FE0546754E336813F0020F54D187
:10060800FFF78EFE401B0228F6D903207FE16F4AD0
:10061800136843F480331360B5E76C4B1A6842F4EF
:1006280080221A601A6842F480321A60ABE7FFF73A
:1006380077FE0546654E336813F4003FC3D0FFF7D5
:100648006FFE401B6428F6D9032060E15F4B5B68AE
:1006580013F4800FC6D15D4B1B6813F0020F03D053
:10066800E368012B40F05081584A1368216923F050
:10067800F80343EAC1031360236813F0080F42D05C
:1006880063696BB3524B0122C3F8802EFFF748FE13
:1006980005464E4E736F13F0020F34D1FFF740FE3C
:1006A800401B0228F6D9032031E1484A1368216922
:1006B80023F0F80343EAC1031360DDE7444B00224B
:1006C8001A60FFF72DFE0546404E336813F0020FFF
:1006D800D2D0FFF725FE401B0228F6D9032016E1E9
:1006E8003B4B0022C3F8802EFFF71AFE0546374E13
:1006F800736F13F0020F06D0FFF712FE401B02289B
:10070800F6D9032003E1236813F0040F76D02F4BAA
:100718001B6C13F0805F33D1002301932B4B1A6CB1
:1007280042F080521A641B6C03F080530193019BC2
:100738000125284B1B6813F4807F23D0A368012B65
:1007480034D0052B38D0214B1A6F22F001021A67DA
:100758001A6F22F004021A67A368002B3CD0FFF737
:10076800DFFD0646194F41F288383B6F13F0020F40
:1007780043D1FFF7D5FD801B4045F6D90320C6E0DD
:100788000025D6E7134A136843F480731360FFF714
:10079800C7FD06460F4F3B6813F4807FCED1FFF7A5
:1007A800BFFD801B0228F6D90320B0E0074A136F6B
:1007B80043F001031367CFE7044B1A6F42F00402BA
:1007C8001A671A6F42F001021A67C5E7003802403B
:1007D8000000474200700040FFF7A2FD0646524F56
:1007E80041F288383B6F13F0020F06D0FFF798FDEF
:1007F800801B4045F6D9032089E0EDB9A369002B99
:1008080000F08480484A926802F00C02082A51D00D
:10081800022B17D0454B00221A66FFF781FD0446CC
:10082800414D2B6813F0007F42D0FFF779FD001B84
:100838000228F6D903206AE03B4A136C23F0805360
:100848001364DBE7394B00221A66FFF769FD05469A
:10085800354E336813F0007F06D0FFF761FD401B6B
:100868000228F6D9032052E0E369226A1343626A38
:1008780043EA8213E26A43EA0263A26A5208013A2F
:1008880043EA0243284A5360284B01221A66FFF7BD
:1008980047FD0446244D2B6813F0007F06D1FFF76F
:1008A8003FFD001B0228F6D9032030E000202EE08F
:1008B80000202CE0012B2DD01B4B5B6803F480013A
:1008C800E269914228D103F03F02216A8A4225D188
:1008D800616A47F6C0721A40B2EB811F20D103F457
:1008E8004031A26A5208013AB1EB024F1AD1E26ACA
:1008F80003F07063B3EB026F14BF0120002006E021
:1009080001207047012002E0012000E0002002B031
:10091800BDE8F0810120FAE70120F8E70120F6E7B9
:100928000120F4E70120F2E70038024000004742C6
:1009380008B5334B9B6803F00C03042B5BD0082BE2
:100948005BD12F4B5A6802F03F025B6813F4800FAB
:100958002CD02B4B5868C0F388104FEA401CBCEBD6
:10096800000C6EEB0E0E4FEA8E1343EA9C634FEABF
:100978008C11B1EB0C0163EB0E03DB0043EA5173FE
:10098800C90011EB000C43F10003590200234FEAA0
:100998004C2041EADC51FFF7FBFB194B5B68C3F3C2
:1009A800014301335B00B0FBF3F008BD144B5868FA
:1009B800C0F388104FEA401CBCEB000C6EEB0E0E27
:1009C8004FEA8E1343EA9C634FEA8C11B1EB0C019A
:1009D80063EB0E03DB0043EA5173C90011EB000C13
:1009E80043F10003990200234FEA8C2041EA9C510D
:1009F800FFF7CEFBD1E70348D7E70348D5E700BFA9
:100A08000038024000127A000024F400002800F0A8
:100A18009D802DE9F0410D460446504B1B6803F0BC
:100A280007038B4208D2CBB24C4A1370136803F009
:100A380007038B4240F08C80236813F0020F17D015
:100A480013F0040F04D0464A936843F4E0539360CC
:100A5800236813F0080F04D0414A936843F46043B5
:100A680093603F4A936823F0F003A1680B439360B7
:100A7800236813F0010F32D06268012A21D0931E37
:100A8800012B25D9364B1B6813F0020F62D034496D
:100A98008B6823F0030313438B60FFF741FC064682
:100AA8002F4F41F28838BB6803F00C036268B3EB40
:100AB800820F14D0FFF734FC801B4045F3D9032084
:100AC80042E0274B1B6813F4003FE0D101203BE0D4
:100AD800234B1B6813F0007FD9D1012034E01F4B52
:100AE8001B6803F00703AB4207D9EAB21B4B1A7025
:100AF8001B6803F00703AB422ED1236813F0040FE1
:100B080006D0174A936823F4E053E1680B439360D7
:100B1800236813F0080F07D0114A9368216923F45A
:100B2800604343EAC1039360FFF702FF0C4B9B68E5
:100B3800C3F303130B4AD35CD8400B4B18600B4B21
:100B48001868FFF7A1FB0020BDE8F081012070477D
:100B58000120F9E70120F7E70120F5E7003C024012
:100B6800003802404C3200084800002024000020D1
:100B78007047704770B504460368DE681D6915F054
:100B8800020F10D016F0020F0DD06FF002021A619A
:100B98000123037703689B6913F0030F5ED000F00D
:100BA800F3FC0023237715F0040F12D016F0040F7E
:100BB8000FD023686FF004021A6102232377236899
:100BC8009B6913F4407F4FD0204600F0DDFC0023E2
:100BD800237715F0080F12D016F0080F0FD02368EE
:100BE8006FF008021A61042323772368DB6913F086
:100BF800030F40D0204600F0C7FC0023237715F0F0
:100C0800100F12D016F0100F0FD023686FF01002DB
:100C18001A61082323772368DB6913F4407F31D0F6
:100C2800204600F0B1FC0023237715F0010F02D015
:100C380016F0010F2DD115F0800F02D016F0800F9D
:100C48002FD115F0400F02D016F0400F31D115F01A
:100C5800200F02D016F0200F33D170BD00F098FCA1
:100C68002046FFF785FF9CE7204600F091FC2046D0
:100C7800FFF77EFFABE7204600F08AFC2046FFF72F
:100C880077FFBAE7204600F083FC2046FFF770FFA5
:100C9800C9E723686FF001021A61204600F07CFC66
:100CA800C9E723686FF080021A61204600F0CBF88C
:100CB800C7E723686FF040021A612046FFF759FF23
:100CC800C5E723686FF020021A61204600F0BAF8E1
:100CD800C3E700000368434A904246D0B0F1804F12
:100CE80058D0A2F57C42904275D002F580629042BD
:100CF8006CD002F58062904214D03B4A90424DD0AD
:100D080002F58062904249D002F58062904245D057
:100D180023F080034A69134303608B68C3620B683E
:100D2800836248E023F070034A6813432D4A9042D7
:100D38001FD0B0F1804F31D0A2F57C4290422DD027
:100D480002F58062904229D023F44073CA681343A5
:100D580023F080034A69134303608B68C3620B68FE
:100D68008362204B984226D110E023F070034A6832
:100D7800134323F44073CA68134323F080034A697A
:100D8800134303608B68C3620B6883620A69154B5F
:100D98001A6310E023F070034A68134323F4407386
:100DA800CA68134323F080034A69134303608B68BE
:100DB800C3620B68836201234361036913F0010F67
:100DC8000ED0036923F001030361704723F0700319
:100DD8004A681343E2E723F070034A681343DDE7E8
:100DE800704700BF000001400040014040B310B50B
:100DF800044690F83D30F3B1022384F83D30214693
:100E080051F8040BFFF766FF012384F8463084F895
:100E18003E3084F83F3084F8403084F8413084F81C
:100E2800423084F8433084F8443084F8453084F8FC
:100E38003D30002010BD80F83C3001F0B7F8DBE70A
:100E48000120704770477047026802F10C0353E8AD
:100E5800003F23F490730C3242E800310029F3D1AB
:100E6800026802F1140353E8003F23F0010314322F
:100E780042E800310029F3D1036B012B05D0202370
:100E880080F84230002303637047026802F10C03C4
:100E980053E8003F23F010030C3242E800310029E8
:100EA800F3D1ECE790F84130DBB2202B10D189B1B7
:100EB80092B101628284C28400234364212280F8B3
:100EC80041200168CA6842F08002CA60184670472B
:100ED80002207047012070470120704708B5806BD9
:100EE8000023C385C38401F0F7F808BD704790F864
:100EF8004230DBB2222B1DD18368B3F5805F06D068
:100F0800826A7BB103685B6803F07F031AE00369B8
:100F1800A3B9826A03685B68C3F308031380836A12
:100F2800023312E00369002BECD108E001F0CAF8A3
:100F3800002048E00220704700207047826A03685A
:100F48005B68DBB21370836A01338362C38D013B34
:100F58009BB2C385002BEFD100B583B00268D3687C
:100F680023F02003D3600268D36823F48073D3602E
:100F78000268536923F001035361202380F842304B
:100F880000234363036B012BD0D100230363026862
:100F980002F10C0353E8003F23F010030C3242E83F
:100FA80000310029F3D103681A6812F0100F06D037
:100FB800002201921A6801925B680193019B818D5E
:100FC800FFF794FF002003B05DF804FB10B582B072
:100FD800044602681368D068516913F00F0F09D1ED
:100FE80013F0200F0DD010F0200F0AD02046FFF785
:100FF8007EFF18E001F0010100F4907C5CEA010C2E
:1010080013D1216B012900F0828013F0800F03D0E7
:1010180010F0800F40F01C8113F0400F03D010F047
:10102800400F40F0428102B010BD13F0010F06D00E
:1010380010F4807F03D0626C42F00102626413F006
:10104800040F2AD071B3626C42F00202626413F09A
:10105800020F03D0626C42F00402626413F0080FBE
:1010680003D0626C42F008026264626C002ADAD033
:1010780013F0200F02D010F0200F1BD123685B69FA
:10108800626C03F0400302F00802134316D12046B5
:1010980001F022F800236364C5E713F0020F01D0C2
:1010A8000029D7D113F0080FDFD000F020020A433F
:1010B800DBD0D6E72046FFF71AFFDFE72046FFF729
:1010C800C3FE23685B6913F0400F1CD0226802F14D
:1010D800140353E8003F23F04003143242E8003180
:1010E8000029F3D1E36B53B1754A1A65E06BFFF73A
:1010F80001FA002897D0E06B036D984793E72046E4
:1011080000F0EAFF8FE7204600F0E6FF8BE713F0D8
:10111800100F3FF47AAF10F0100F3FF476AF0023B2
:1011280001931368019353680193019B536913F06A
:10113800400F51D0E26B13685B689BB2002B3FF401
:1011480072AFA18D99427FF66EAFE385D369B3F58F
:10115800807F37D0226802F10C0353E8003F23F464
:1011680080730C3242E800310029F3D1226802F181
:10117800140353E8003F23F00103143242E800311E
:101188000029F3D1226802F1140353E8003F23F049
:101198004003143242E800310029F3D1202384F8B7
:1011A800423000232363226802F10C0353E8003F16
:1011B80023F010030C3242E800310029F3D1E06B30
:1011C800FFF753F902236363E38DA18DC91A89B22E
:1011D8002046FFF78BFE26E7E38D9AB2E38D9BB29C
:1011E800002B3FF420AFA18D891A89B200293FF462
:1011F8001AAF226802F10C0353E8003F23F49073FE
:101208000C3242E800300028F3D1226802F11403BE
:1012180053E8003F23F00103143242E8003000286D
:10122800F3D1202384F8423000232363226802F19B
:101238000C0353E8003F23F010030C3242E800305F
:101248000028F3D1022363632046FFF74FFEEAE646
:1012580094F84130DBB2212B7FF4E5AEA368B3F5F7
:10126800805F16D0236A591C21621B785360E38C77
:10127800013B9BB2E384002B7FF4D5AE2268D36890
:1012880023F08003D3602268D36843F04003D3601F
:10129800C9E62369002BE5D1236A1B88C3F3080339
:1012A8005360236A02332362E1E7D36823F04003E3
:1012B800D360202384F84130204600F008FFB2E6CE
:1012C800E50E000890F84030012B14D0012380F877
:1012D8004030242380F841300268D36823F00C039F
:1012E80043F00803D360202380F84130002380F8BE
:1012F8004030184670470220704790F84030012B64
:1013080014D0012380F84030242380F8413002684B
:10131800D36823F00C0343F00403D360202380F840
:101328004130002380F8403018467047022070474B
:1013380090F8413090F842001843704781628285E6
:10134800C28500234364222380F84230036923B115
:101358000268D36843F48073D3600268536943F02A
:10136800010353610268D36843F02003D36000206F
:10137800704708B590F84230DBB2202B08D149B14C
:101388000AB9012008BD00230363FFF7D7FFF9E777
:101398000220F7E70120F5E748B108B500F08EFC18
:1013A8000068836E13B1C36E6030984708BDFEE7CE
:1013B80058B110B50246037F013B072B16D8DFE86A
:1013C80003F00518150715151516FEE7012400E0AA
:1013D8000324104600F072FC0368A01D03EB001004
:1013E80082681AB103EB0413DB6E984710BD04241E
:1013F800EFE70224EDE700000346164A904213D0B7
:10140800B0F1804F1AD0A2F57C4290421CD002F570
:101418008062904218BF4FF6FF7006D103200E4A33
:10142800934206D10720704700200C4A934206D108
:1014380004204FF6FF739842F5D1FEE70120084AD1
:10144800934202D1052070470220064A9342E6D112
:10145800062070470000014000480140000C004091
:101468000040014000440140F8B50546064656F8DC
:10147800100FFFF7C1FF0446304600F0BDFC002303
:101488000B4A42F82430EB6005F1A00405F1500640
:10149800032702E0103CB44207D0A368002BF9D020
:1014A8003A46214620469847F4E72846F8BD00BF4B
:1014B800D40000202DE9F84304460D460846FFF7FE
:1014C8009BFF236903B1FEE704F10C03234A42F8AA
:1014D80020302561002384F82C3023636363A363E1
:1014E800E36323646364A36484F84C3084F84D3068
:1014F800E4600E22A265E36504F11009484600F095
:10150800DFFB04F1600504F1B0074FF00308002683
:1015180002E01035BD4209D0AB68002BF9D0424635
:10152800294628469847AE60EE60F2E7002323700C
:10153800A3806370E380A3702381E3706381636198
:101548004FF6FF72E261A361236263628023A362A4
:101558004846FFF74BFCBDE8F88300BFD4000020E5
:1015680010B5044600F16003B03000221A605A60DA
:101578009A60DA6010338342F8D100232361204651
:10158800FFF798FF204610BD08B5FFF711FF08BD0B
:1015980008B5FFF70DFF08BD08B5FFF7FDFE08BD4C
:1015A80008B5064B186810B10430FFF7E3FA034B8F
:1015B800986910B10430FFF7DDFA08BDD4000020A7
:1015C80008B5034B186810B10430FFF7D3FA08BD0B
:1015D800D400002008B5034B586810B10430FFF759
:1015E800C9FA08BDD400002008B5034B986810B1AB
:1015F8000430FFF7BFFA08BDD400002008B5034B3C
:10160800D86810B10430FFF7B5FA08BDD40000203F
:1016180008B5034B186910B10430FFF7ABFA08BDE1
:10162800D400002008B5034B586910B10430FFF707
:10163800A1FA08BDD400002008B5034BD86910B141
:101648000430FFF797FA08BDD400002008B501F070
:1016580077F908BD08B501F07BF908BD86B0052803
:1016680059D8DFE800F00312202E3C4A00230093EB
:101678002A4B1A6B42F001021A631B6B03F0010339
:101688000093009B264806B0704700230193234B24
:101698001A6B42F002021A631B6B03F002030193F8
:1016A800019B2048EFE7002302931C4B1A6B42F082
:1016B80004021A631B6B03F004030293029B1A488B
:1016C800E1E700230393154B1A6B42F008021A63F3
:1016D8001B6B03F008030393039B1448D3E7002311
:1016E80004930E4B1A6B42F010021A631B6B03F043
:1016F80010030493049B0E48C5E700230593074B8A
:101708001A6B42F080021A631B6B03F08003059387
:10171800059B0848B7E70020B5E700BF003802403E
:10172800000002400004024000080240000C024091
:1017380000100240001C024070B50546134900F035
:1017480074FAFFF759FE0446114B53F8203063B181
:101758000F4B53F824301C6834B12046FFF784FE41
:10176800B0212046FFF776FF70BDB020FFF76EFF6F
:1017780006460649284600F058FA01463046FFF763
:10178800EFFE034B53F824301E60E1E7EC3200080B
:10179800D400002008B5FEF7C3FD08BD704708B5A2
:1017A800FEF7B2FDFEF74DFEFFF7F8FF08BD7047E4
:1017B80084B000220192104B196C41F080511964D9
:1017C800196C01F08051019101990292596C41F410
:1017D80080415964596C01F4804102910299039245
:1017E8001A6B42F480521A631B6B03F48053039301
:1017F800039B04B0704700BF003802400D4BD3F87C
:10180800FC3013F0807F06D10A4AD2F8FC3043F04E
:101818008073C2F8FC30084B00225A601A6842F004
:1018280001021A6000BF00BF00BF5868B0FA80F01C
:101838004009704700ED00E0001000E008B5FFF730
:10184800B7FFFFF7DBFFFEF745FDFFF7B0FF00F03E
:10185800CBFC0248FEF7FAFD08BD00BF400000209F
:1018680008B5012814D0002340080133DBB2012851
:10187800FAD103EB8302074800EB8200826832B199
:1018880003EB8303044A02EB83031B69984708BDF3
:101898000023EEE7F8000020F400002008B501203E
:1018A800FEF73CFE08BD08B50220FEF737FE08BD6E
:1018B80008B50420FEF732FE08BD08B50820FEF77B
:1018C8002DFE08BD08B51020FEF728FE08BD38B566
:1018D80005252024A0B2FEF721FE6400013DF9D1C0
:1018E80038BD38B506254FF48064A0B2FEF716FE61
:1018F8006400013DF9D138BD484A1146062301F874
:10190800043B002353604B608B6013610721117502
:101918009361D36113625362082182F82810D3625D
:10192800136353639363092182F83C10136453646F
:101938009364D3640A2182F8501053659365D36584
:101948001366172182F864109366D366136753678A
:1019580082F87810D367C2F88030C2F88430C2F8B1
:10196800883082F88C10C2F89030C2F89430C2F8EF
:101978009830C2F89C3082F8A010C2F8A430C2F89F
:10198800A830C2F8AC30C2F8B03082F8B410C2F84F
:10199800B830C2F8BC30C2F8C030C2F8C430282110
:1019A80082F8C810C2F8CC30C2F8D030C2F8D430AF
:1019B800C2F8D83082F8DC10C2F8E030C2F8E4305F
:1019C800C2F8E830C2F8EC3082F8F010C2F8F4300F
:1019D800C2F8F830C2F8FC30C2F8003182F80411BD
:1019E800C2F80831C2F80C31C2F81031C2F814310B
:1019F80082F81811C2F81C31C2F82031C2F824311B
:101A0800C2F8283182F82C11C2F83031C2F83431CA
:101A1800C2F83831C2F83C31704700BFF4000020EA
:101A280070B5084C0326A4F5A07505E0201D3246C4
:101A380001469847AC4204D0143CE368002BF5D12A
:101A4800F8E770BD34020020B0F1FF3F0CD00B68FE
:101A5800B3F1FF3F0AD098420AD051F80C3FB3F1D6
:101A6800FF3FF8D1002070470020704700207047E2
:101A780001207047B0F1FF3F00D1FEE7F8B50546F9
:101A88000C4600F00F035F4A52F82360C0F30310BE
:101A9800FFF7E4FD0346816896FAA6F2B2FA82F2ED
:101AA8005200032000FA02F221EA020C96FAA6F18B
:101AB800B1FA81F104F00700490003228A4042EAA2
:101AC8000C029A60032803D8DFE800F066682E034A
:101AD800FEE703221D6896FAA6F1B1FA81F14900E2
:101AE8004FF0030C0CFA01F125EA010596FAA6F16C
:101AF800B1FA81F149008A402A431A600138012865
:101B08004ED9C4F30114012C52D0022C65D0D968E7
:101B180096FAA6F2B2FA82F25200032000FA02F212
:101B280021EA0202DA6057E0C4F306217F2901D1D5
:101B38000222CFE715F0080F17D05F6A320A92FA2F
:101B4800A2F5B5FA85F5AD004FF00F0E0EFA05F5C2
:101B580027EA050592FAA2F2B2FA82F2920001FA95
:101B680002F22A435A620222B4E71D6A96FAA6F2E2
:101B7800B2FA82F292004FF00F0C0CFA02F225EA48
:101B8800020596FAA6F2B2FA82F2920001FA02F27D
:101B98002A431A6202229DE700229BE7012299E765
:101BA80014F0080F5A6814BF3243B2435A60A8E7CA
:101BB800D86896FAA6F2B2FA82F25200032101FA24
:101BC80002F220EA020096FAA6F1B1FA81F1490080
:101BD80001228A400243DA60F8BDD86896FAA6F274
:101BE800B2FA82F25200032101FA02F220EA02005C
:101BF80096FAA6F1B1FA81F1490002228A4002431D
:101C0800DA60E9E70C3200080B68B3F1FF3F0AD04D
:101C1800984206D051F80C3FB3F1FF3FF8D10020AD
:101C280070474868704700207047B0F1FF3F03D005
:101C380008B5FFF7E9FF08BD002070474B6853B1AE
:101C4800984206D00C314B68002BF9D14FF0FF3089
:101C58007047086870474FF0FF30704718B108B5F3
:101C6800FFF7ECFF08BD4FF0FF3070471049D1F87F
:101C7800883043F47003C1F888300E4B1A6842F07C
:101C880001021A6000229A601A6822F0847222F413
:101C980080321A60084A5A601A6822F480221A6050
:101CA8004FF43F02DA604FF000638B60704700BF6B
:101CB80000ED00E00038024010300024043870477E
:101CC80088B00268444B9A421DD00368B3F1804F34
:101CD80026D00268414B9A422FD00268404B9A4264
:101CE80038D002683F4B9A4241D002683E4B9A4234
:101CF8004AD002683D4B9A4253D002683C4B9A4204
:101D08005CD008B07047002300933A4B5A6C42F0FD
:101D180001025A645B6C03F001030093009BD4E753
:101D280000230193334B1A6C42F001021A641B6CB6
:101D380003F001030193019BCBE7002302932D4B92
:101D48001A6C42F002021A641B6C03F0020302933D
:101D5800029BC2E700230393264B1A6C42F004024D
:101D68001A641B6C03F004030393039BB9E7002375
:101D78000493204B1A6C42F008021A641B6C03F09F
:101D880008030493049BB0E700230593194B5A6C8E
:101D980042F480325A645B6C03F480330593059BEC
:101DA800A7E700230693134B5A6C42F400325A6497
:101DB8005B6C03F400330693069B9EE700230793AE
:101DC8000C4B5A6C42F480225A645B6C03F48023F7
:101DD8000793079B95E700BF0000014000040040FF
:101DE80000080040000C0040004001400044014051
:101DF80000480140003802400268284B9A421CD033
:101E08000368B3F1804F1ED00268254B9A4220D058
:101E18000268244B9A4222D00268234B9A4224D06B
:101E28000268224B9A4226D00268214B9A4228D057
:101E38000268204B9A422AD070471F4A536C23F0FD
:101E480001035364DCE71C4A136C23F00103136499
:101E5800DAE7194A136C23F002031364D8E7164A29
:101E6800136C23F004031364D6E7134A136C23F0AE
:101E780008031364D4E7104A536C23F48033536483
:101E8800D2E70D4A536C23F400335364D0E70A4A6F
:101E9800536C23F480235364CEE700BF0000014055
:101EA8000004004000080040000C004000400140D1
:101EB800004401400048014000380240B0F1FF3FB3
:101EC80025D0194B984225D00DD8A3F50063984228
:101ED80022D003F58063984220D0B0F1804F01D121
:101EE8001C207047FEE7114B984219D00AD8A3F579
:101EF8008843984216D003F58043984201D11820B0
:101F08007047EFE70A4B9842ECD11A2070476FF000
:101F18000D007047322070471D2070471E20704703
:101F28001920704719207047000C004000440140F8
:101F380000480140B0F1FF3F25D0194B984225D009
:101F480014D8A3F57843984222D009D8B0F1804F2D
:101F580020D0A3F58063984201D11D207047FEE789
:101F6800104B984201D132207047F8E70E4B984247
:101F780012D003F58063984210D0A3F5006398420D
:101F8800EDD1182070476FF00D0070471B20704787
:101F98001E2070471C207047192070471A20704770
:101FA80000000140000C00400044014070B50446A8
:101FB800FFF786FE2068FFF781FFE26CA16CFEF751
:101FC800C7F92068FFF77AFFFEF7F8F92668304668
:101FD800FFF7B0FF05463046FFF770FF854200D196
:101FE80070BDE26CA16C2846FEF7B2F92068FFF7D5
:101FF800A1FFFEF7E3F9F3E708B590F86520064B73
:1020080053F82200FFF794F900F02200222814BFA9
:102018000020012008BD00BF3402002008B590F858
:102028006520064B53F82200FFF782F900F02100E3
:10203800212814BF0020012008BD00BF3402002061
:10204800C8B138B515460446016590F96400FEF735
:10205800C3F9B4F87610E36E94F86500AAB213FADF
:1020680081F1054B53F82000FEF71CFF94F964003A
:10207800FEF7A4F938BD70473402002068B108B5EE
:10208800826DB2F1FF3F00D008BD90F86520034B88
:1020980053F82200FFF716F9F6E7704734020020DC
:1020A80068B108B5826DB2F1FF3F00D008BD90F865
:1020B8006520034B53F82200FFF71FF9F6E7704736
:1020C8003402002008B5836C0438984708BD08B569
:1020D800C36C0438984708BD10B584B0044603683B
:1020E8001A6812F0010F0CD0002200921A680092B0
:1020F8005B680093009B201FFFF77EFF28B304B0A6
:1021080010BD1A6812F0020F07D0002201921A6857
:1021180001925B680193019BEDE71A6812F0040FC6
:1021280007D0002202921A6802925B680293029B0F
:10213800E1E71A6812F0080FDDD0002203921A684E
:1021480003925B680393039BD5E7012204F16201C4
:102158002046FFF70EF9D2E708B52520FEF762F909
:10216800024B1868FEF732FF08BD00BF340200209A
:1021780008B52620FEF756F9024B586808B1FEF755
:1021880025FF08BD3402002008B54720FEF74AF9AC
:10219800024B9868FEF71AFF08BD00BF3402002002
:1021A80003460D4A10680344EFF30882934207D8A8
:1021B8000A4A0B49521A934208D2074A13607047D9
:1021C800084B0C221A604FF0FF307047054B0C2269
:1021D8001A604FF0FF3070474C00002000000220CA
:1021E80000040000B004002000B595B030220021A2
:1021F80008A800F063FC0023039304930593069357
:10220800079301931E4A116C41F080511164126CBE
:1022180002F080520192019A02931A4A116841F41D
:1022280040411160126802F440420292029A02226E
:10223800089201210B9110210C910E920F930E23FD
:1022480010934FF4A8731193042312930823139344
:1022580008A8FEF771F900B1FEE70F2303930223E4
:102268000493002305934FF48052069207930321A9
:1022780003A8FEF7CBFB00B1FEE715B05DF804FB41
:10228800003802400070004008B50320FEF74EF801
:1022980000F008F908BD08B5AFF30080FDF7B2FFFC
:1022A800FDF7F0FF00F0EEF8FAE70000DFF834D0B1
:1022B800FFF7DCFC0C480D490D4A002302E0D45816
:1022C800C4500433C4188C42F9D30A4A0A4C002378
:1022D80001E013600432A242FBD300F007FCFFF7D1
:1022E800DAFF70470000022000000020A000002054
:1022F800AC350008A0000020B8040020FEE700006C
:10230800F8B50D46C3B2232B1AD800F4E0602F4A63
:1023180052F823400443B4F1FF3F15D0C4F3031629
:1023280004F00F072A4B53F82630FB4013F0010F37
:1023380019D1052D2AD8DFE805F02A3E2F34394374
:1023480000F0C002C02A00D0F8BDC92BFCD800F0AC
:102358003F02204B53F8222000F4E0601B4B53F857
:1023680022400443D7E71C492046FFF76DFB48B9D4
:1023780017490122BA4051F8263023EA020341F8EE
:102388002630D6E72046FFF7D7F9F1E7FEE7002128
:102398002046FFF76FFBD7E710212046FFF76AFBBF
:1023A800D2E720212046FFF765FBCDE70321204631
:1023B800FFF760FBC8E701212046FFF75BFBC3E797
:1023C80009212046FFF756FBBEE700BFD0340008BE
:1023D80040020020A8340008EC320008C3B2232BC6
:1023E80014D800F4E060194A52F823301843C0F3B7
:1023F8000313052B24D8164A52F8232000F00F00A7
:10240800144B53F82030E9B19361704700F0C002D3
:10241800C02A03D04FF0FF300022EFE7C92B0BD8BA
:1024280000F03F020C4B53F8222000F4E060074B09
:1024380053F822301843DAE74FF0FF300022DDE787
:102448000022DBE71B049361704700BFD03400080B
:10245800280000200C320008A834000808B5FFF74F
:1024680099F908BD00B9704738B50446FFF792F9E5
:10247800054600F01BF8FFF78DF9401BA042F8D382
:1024880038BD000008B5054B1BB1054800F00FF832
:1024980000B908BDAFF30080FBE700BF00000000F3
:1024A8005802002008B5FFF7C9F908BD7047B0F811
:1024B8000831B0F80421981A00F03F007047B0F8CE
:1024C80008319BB2B0F8042193421ABFD0F8FC300F
:1024D800985C4FF0FF30704790F80631B0F80A0169
:1024E800C0B2834227BFC3F13F03C018C01A00F12E
:1024F800FF30704700B583B08DF8071003685B683C
:1025080001220DF10701984703B05DF804FB0000B4
:1025180008B5B0F87630826F12FA83F303F03F0300
:10252800A0F87630B0F87210B0F876309BB29942C5
:1025380008BF002000D108BDB0F876C01FFA8CFC97
:10254800B0F876309BB201F14002A2EB0C02514286
:1025580002F03F0201F03F0158BF4A42C3F1400375
:102568009A4228BF1A4682670249FFF769FD4FF071
:10257800FF30E0E7192500082DE9F84305468946AC
:10258800174603689B6898470646B5F80641C4F1A4
:10259800400401232B74D5F8EC30B3F1FF3F02D18E
:1025A80095F810313BB92B689B6828469847002856
:1025B800F9D0B8461CE0002385F8103105F19400E5
:1025C800FFF75CFDEFE7B44228BF34462B685B6831
:1025D8002246494628469847A8EB0408A1442B6898
:1025E8009B68284698470646B5F80641C4F140045A
:1025F800A045E8D8B045E6D8B5F8063103EB08029F
:10260800402A17D8D5F8000142464946184400F038
:1026180093FA4446B5F80631434403F03F03A5F85E
:10262800063105F194063046FFF7F8FCA0B13846AC
:10263800BDE8F883C3F14004D5F8000122464946B5
:10264800184400F079FAA8EB040209EB0401D5F864
:10265800000100F071FADDE7C5F80C412246024995
:102668003046FFF7EDFCE2E719250008914208BF64
:102678004FF0FF31C0F8EC10C0F8E820C0F8F03097
:10268800009BC0F8F43000F11103C0F8FC300023BF
:10269800A0F80831A0F8043100F15102C0F8002177
:1026A800A0F80631A0F80A317047037C03B97047D7
:1026B80070B504460D46FDF733FE0646B4F80A31F8
:1026C8009BB2B4F806219A420AD0002DF6D0FDF745
:1026D80027FE831BAB42F1D3B4F80A31A4F80631C4
:1026E80070BD08B50021FFF7E0FF08BDCBB2232B72
:1026F80008D801F4E0610F4A52F823301943C0F8B2
:10270800EC10704701F0C002C02A02D04FF0FF3130
:10271800F5E7C92B0BD801F03F02074B53F82220ED
:1027280001F4E061034B53F822301943E7E74FF017
:10273800FF31E4E7D0340008A8340008CBB2232BDB
:1027480008D801F4E0610F4A52F823301943C0F861
:10275800E810704701F0C002C02A02D04FF0FF31E4
:10276800F5E7C92B0BD801F03F02074B53F822209D
:1027780001F4E061034B53F822301943E7E74FF0C7
:10278800FF31E4E7D0340008A834000870B582B0FF
:1027980004461646002343604FF47A738360234B44
:1027A80003604FF0FF33C0F8EC30214B984229D03A
:1027B8000D46204B9A682049204B53F82200FFF71A
:1027C80034FA854228D01E492846FFF747FAC4F84C
:1027D800EC0019492846FFF741FAC4F8E800012E31
:1027E80004BF4FF0FF33C4F8EC304FF0FF330093D1
:1027F800D4F8E820D4F8EC102046FFF737FF20463D
:1028080002B070BD1D46C3211846FFF76FFFC221F5
:102818002846FFF793FFE2E7C3212046FFF766FF4C
:10282800C2212046FFF78AFFD9E700BF68350008B4
:1028380058020020A8340008A4320008D034000848
:102848005C320008D0F8EC30B3F1FF3F10D110B57E
:1028580004460368DB68984794F8103103B110BD4B
:10286800012384F8103104F19400FFF719FCF6E70E
:10287800704710B50446FFF7E5FFB4F8082192B297
:10288800B4F804319A4208D0D4F8FC20D05C013363
:1028980003F03F03A4F8043110BD4FF0FF30FBE70D
:1028A80008B5002202490348FFF770FF08BD00BFC2
:1028B800004400405802002010B50446FFF7CEFD42
:1028C800E06023685B6920469847002808DAFFF72C
:1028D800C5FDE368C01AA3689842F2D34FF0FF30F1
:1028E80010BDF8B5174672B106460D4600243046AD
:1028F800FFF7E2FF002805DB05F8010B0134A742CA
:10290800F5D100E027463846F8BD2DE9F041984654
:102918008BB106460F46154600243046FFF7CCFF1C
:10292800002807DB874209D005F8010B0134A045D0
:10293800F3D100E0A0464046BDE8F081A046FAE7A2
:10294800024B0146186800F02DB800BF5000002067
:10295800024B0146186800F0FDB800BF5000002087
:1029680070B50F4E0C463168054611B900F0AEF847
:1029780030602146284600F0A9F8431C03D14FF0E7
:10298800FF34204670BDC41C24F00304A042F8D0D4
:10299800211A284600F09AF80130F2D1EFE700BF7B
:1029A800700300202DE9F843CD1C25F003050835F8
:1029B8000C2D38BF0C25002D064601DBA94204D991
:1029C8000C2333600020BDE8F883DFF8D48000F0E2
:1029D80069F8D8F800301C4644BB29463046FFF752
:1029E800BFFF431C044658D1D8F800402746002FA3
:1029F80043D1002C4BD023683946304604EB0309F9
:102A080000F064F8814542D121686D1A29463046A4
:102A1800FFF7A6FF01303AD023682B442360D8F88B
:102A280000305A6862BBC8F800700FE02268521B79
:102A380020D40B2A17D96119A342256018BF596001
:102A4800636808BFC8F8001062514B60304600F058
:102A58002FF804F10B00231D20F00700C21A1CBF39
:102A68001B1AA350AFE76268A3420CBFC8F8002046
:102A78005A60EBE723466468AEE73C467F68B6E7F2
:102A88001A465B68A342FBD100235360DEE70C23A0
:102A98003360304600F00CF894E70560D6E700BFD5
:102AA80074030020014800F045B800BFB4040020BA
:102AB800014800F040B800BFB404002002440346B7
:102AC800934200D1704703F8011BF9E738B5064D6A
:102AD8000023044608462B60FFF762FB431C02D123
:102AE8002B6803B1236038BDB004002070B50D4DCC
:102AF8000D4C641BA4100026A64209D10B4D0C4CAA
:102B080000F0D0F9641BA4100026A64205D170BDC0
:102B180055F8043B98470136EEE755F8043B9847CB
:102B28000136F2E79435000894350008943500081A
:102B3800A4350008704770470A44914200F1FF33FA
:102B480000D1704710B511F8014B03F8014F9142BD
:102B5800F9D110BD38B50546002941D051F8043CDB
:102B68000C1F002BB8BFE418FFF79CFF1D4A136821
:102B780033B9636014602846BDE83840FFF798BF52
:102B8800A34208D9206821188B4201BF19685B68E5
:102B980009182160EDE71A465B680BB1A342FAD920
:102BA80011685018A0420BD1206801445018834284
:102BB8001160E0D118685B68536008441060DAE778
:102BC80002D90C232B60D6E7206821188B4204BF5A
:102BD80019685B68636004BF091821605460CAE71C
:102BE80038BD00BF740300202DE9F047089D0E464C
:102BF80004460F46002B4AD194468C45B2FA82F21D
:102C080060D942B1C2F12003974020FA03F30CFACD
:102C180002FC1F4394404FEA1C4E1FFA8CF6B7FB88
:102C2800FEF1230C0EFB117743EA074301FB06F084
:102C380098420AD91CEB030301F1FF3780F0158194
:102C4800984240F21281023963441B1AA4B2B3FBC2
:102C5800FEF00EFB103344EA034400FB06F6A642DE
:102C68000AD91CEB040400F1FF3380F00081A6426E
:102C780040F2FD806444023840EA0140A41B002170
:102C88001DB1D4400023C5E90043BDE8F0878B425D
:102C980005D90DB1C5E9000100210846F5E7B3FAE9
:102CA80083F1002946D1B34202D3824200F2F58073
:102CB800841A66EB030201201746002DE5D0C5E90A
:102CC8000047E2E7002A40F09380A1EB0C034FEAAB
:102CD8001C471FFA8CFE0121B3FBF7F607FB1630E1
:102CE800230C43EA00430EFB06F0984208D91CEB7C
:102CF800030306F1FF3802D2984200F2D08046461C
:102D08001B1AA4B2B3FBF7F007FB103344EA0344E1
:102D18000EFB00FEA64508D91CEB040400F1FF33A6
:102D280002D2A64500F2B6801846A4EB0E0440EA8B
:102D38000640A5E7C1F120078B4022FA07FC4CEAC0
:102D4800030C06FA01FE20FA07F426FA07F344EA10
:102D58000E0400FA01F84FEA1C404FEA1449B3FB8D
:102D6800F0FE1FFA8CF600FB1E3349EA03430EFB04
:102D780006F9994502FA01F20BD91CEB03030EF18F
:102D8800FF3A80F08580994540F28280AEF1020ECC
:102D98006344A3EB0909A4B2B9FBF0F300FB139950
:102DA80044EA094403FB06F6A64208D91CEB0404CE
:102DB80003F1FF3068D2A64266D9023B644443EA75
:102DC8000E40A41BA0FB02E6B4427346B14652D3A0
:102DD8004FD05DB1B8EB030264EB090404FA07F7BE
:102DE80022FA01F31F43CC40C5E9007400214CE7E7
:102DF800C2F1200120FA01F30CFA02FC26FA01F1D3
:102E0800964033434FEA1C471FFA8CFEB1FBF7F09C
:102E180007FB1016190C41EA064100FB0EF68E421C
:102E280004FA02F408D91CEB010100F1FF382DD295
:102E38008E422BD902386144891B9BB2B1FBF7F64D
:102E480007FB161143EA014306FB0EF1994208D924
:102E58001CEB030306F1FF3814D2994212D9023E43
:102E680063445B1A46EA004136E73946EDE6184600
:102E780002E7F045ADD2BEEB020366EB0C06013863
:102E8800B146A6E74646ECE7034698E74046D3E74F
:102E9800D6467EE76444023847E708460DE7023E17
:102EA80063442DE7F8B500BFF8BC08BC9E467047E0
:0C2EB800F8B500BFF8BC08BC9E4670478F
:102EC4000C2020200C1010100000007F005A002558
:102ED400000000007F00000000000000007F0000F0
:102EE400005A00250000000000000000007F0000E0
:102EF40000007F000000000000000000000000004F
:102F04007F0000005A0025000000007F0000000040
:102F1400000000007F00000050002F0000007F64CC
:102F2400000000007F0000000000000050002F009F
:102F34000000007F0000007F00000000000000008F
:102F4400007F0000000000000000000000000000FE
:102F54000000000050002F00000000000000007F6F
:102F640000000000000000007F00000000000000DE
:102F7400000000007F00000000000000007F00004F
:102F8400000000000000007F0000000000000000BE
:102F94007F007F000000000000000000000000002F
:102FA40000000000007F7F0000000000000000001F
:102FB4000000000000000000000064000000006E3B
:102FC400000000007F0000000000000000502F00FF
:102FD40000000000000000007F000000000000006E
:102FE40050002F0000000000000050002F000000DF
:102FF4000000000000007F00005A002500000000CF
:1030040000000000000000000000000000007F003D
:1030140000000000000000000000000000007F002D
:10302400005A00250000000000000000000000001D
:103034000000000000007F0000000000000000000D
:103044000000000000007F00005A0025000000007E
:1030540000000000000000000000000000007F00ED
:1030640000000000000000000000000000007F00DD
:10307400005A0025000000000000000000000000CD
:103084000000000000007F000000000000007F003E
:10309400000000000000000000000000000000002C
:1030A4005A00257F0000000000000000000000001E
:1030B40000007F000000000000000000000000008D
:1030C400000000000000007F50002F0000000000FE
:1030D400000000006E00000000000000000000007E
:1030E400780000006E000000005A0000000000009C
:1030F4005A0025000000000000000000000000004D
:10310400000000000000007F000000005A00007F63
:10311400000000005A000000000000000000000051
:10312400000000000000000000000000007F00001C
:10313400000000000000000000000000000000008B
:1031440000000000000000007F00000000000000FC
:1031540000000000007F00000000000000000000EC
:10316400000000000000000000000000000000005B
:103174007F0000000000000000000000007F00004D
:1031840000000000000000000000000000007F00BC
:10319400000000000000000000000000000000002B
:1031A40000007F0000000000000000000000002F6D
:1031B4000000000000005A00000000007F00000032
:1031C400000000000000000000000000005A25007C
:1031D4000000007F00000000007F000000000000ED
:1031E4000000007F000000000000005A25000000DD
:1031F40000007F000000007F0000000000000000CD
:10320400007F000000000000010000000200000038
:10321400040000000800000010000000200000006E
:1032240040000000800000000001000000020000D7
:10323400000400000008000000100000002000004E
:1032440000400000008000000000000000000000BA
:1032540001020304060708090300000000440040BB
:10326400120700000A0000000010014012070000CD
:103274000C000000001401401208000013000000BC
:103284000010014012070000170000000010014068
:1032940012070000FFFFFFFF000000000000000015
:1032A4000200000000440040120700000900000072
:1032B40000100140120700000B0000000014014040
:1032C400120800000F000000001001401207000067
:1032D400160000000010014012070000FFFFFFFF6E
:1032E400000000000000000000000000000000409A
:1032F4001281000000010000000C00401282000056
:103304000100000000000040120101000101000062
:10331400000C004012020100020000000000004006
:103324001281010002010000000C00401282010021
:10333400020200000040014012830000030000006C
:10334400000000401201020003010000000C0040D4
:1033540012020200030200000040014012030100B7
:10336400050000000000004012810000060000007B
:103374000004004012820000070000000000014029
:103384001281100007010000000400401202010035
:103394000800000000000140128100000900000044
:1033A40000000140120101000A0000000000014079
:1033B400128101000B000000000001401201020014
:1033C4000F00000000000040128100001000000007
:1033D400000001401201110010010000000400402F
:1033E400128201001100000000000140128111004E
:1033F400110100000004004012020200130000004A
:10340400000000401201010014000000000400400C
:1034140012820000150000000004004012020100A6
:10342400160000000008004012820000170000008F
:1034340000080040120201001800000000080040CB
:1034440012820100180100000044014012830000B0
:1034540019000000000800401202020019010000D7
:1034640000480140128300001A00000000000040E0
:10347400128101001D0000000000014012811000B3
:103484001E00000000000140120111001F00000096
:103494000000014012811100FFFFFFFF0000000047
:1034A4000000000000000000010000000200000015
:1034B40003000000040000000500000006000000F6
:1034C40007000000100000001100000000000000D0
:1034D40001000000020000000300000004000000DE
:1034E40005000000060000000700000008000000BE
:1034F400090000000A0000000B0000000C0000009E
:103504000D0000000E0000000F000000100000007D
:10351400110000001200000013000000140000005D
:10352400150000001600000017000000180000003D
:10353400190000001A0000001C0000001D0000001B
:103544001E0000001F0000002D0000002E000000DF
:103554002F00000050000000510000000000000097
:1035640000000000FD24000881250008E124000873
:10357400EB260008B72400087B280008C7240008AD
:08358400EB28000813290008E0
:08358C0064F6FF7F010000005E
:1035940091220008F101000801190008A928000877
:0835A400CD010008291A0008FE
:1035AC00D03100083031000890300008F82F0008A6
:1035BC00BC2F00086C2F00081C2F0008CC2E000814
:1035CC000100000010000000000002400004024056
:1035DC0000080240000C024000100240001C024097
:1035EC0000300240000000000024F400B804002069
:1035FC00540000200000000078030020E0030020AD
:10360C004804002000000000000000000000000042
:10361C00000000000000000000000000000000009E
:10362C00000000000000000000000000000000008E
:10363C00000000000000000000000000000000007E
:04000005080022B518
:00000001FF
